:03000000020026D5
:0C002600787FE4F6D8FD75810802006DBB
:03001E00010800D6
:0500190012000380FE4F
:10000300758920758DFD758BFD759850E4F587D244
:06001300AFD2ACD28E2238
:030023000200B226
:1000B200C0E0C0F0C083C082C0D075D000C000C014
:1000C20001C002C003C004C005C006C007AF99EF5B
:1000D20024FE600F146011146013240370121201C5
:1000E20021800D12010F800812013180031201409C
:1000F200C298D007D006D005D004D003D002D001D8
:0D010200D000D0D0D082D083D0F0D0E03239
:10012100E508700BF5807590F075A0FF7508012248
:10010F00E508B4010C7580FF7590FF75A0FFE4F54D
:02011F000822B4
:0F013100E508B401097580FF75900FE4F5A02271
:0D014000E508B40107E4F580F590F5A02274
:10003200020019E493A3F8E493A34003F68001F2CB
:1000420008DFF48029E493A3F85407240CC8C333CF
:10005200C4540F4420C8834004F456800146F6DF9E
:10006200E4800B010204081020408090001EE47E10
:10007200019360BCA3FF543F30E509541FFEE49393
:10008200A360010ECF54C025E060A840B8E493A35A
:10009200FAE493A3F8E493A3C8C582C8CAC583CA85
:1000A200F0A3C8C582C8CAC583CADFE9DEE780BE3D
:0100210000DE
:00000001FF
