:03000000020026D5
:0C002600787FE4F6D8FD75812002006DA3
:05012C00C10001080004
:1000B200120003300009E5087005120019800620BD
:1000C200000312010D30000AE508B4010512011AFD
:0F00D20080E13000DEE508B402D912012480D4A9
:10000300758920758DFD758BFD759850E4F587D244
:06001300AFD2ACD28E2238
:030023000200E1F7
:1000E100C0E0C0D075D000C007AF99EF24FE600B0F
:1000F10014600D2402700CB20080087508018003A1
:0C010100750802C298D007D0D0D0E032C0
:0A001900E4F5807590F075A0FF2259
:0D010D007580FF7590FF75A0FFE4F50822D6
:0A011A007580FF75900FE4F5A02238
:08012400E4F580F590F5A0223E
:100032000200B2E493A3F8E493A34003F68001F232
:1000420008DFF48029E493A3F85407240CC8C333CF
:10005200C4540F4420C8834004F456800146F6DF9E
:10006200E4800B010204081020408090012CE47E01
:10007200019360BCA3FF543F30E509541FFEE49393
:10008200A360010ECF54C025E060A840B8E493A35A
:10009200FAE493A3F8E493A3C8C582C8CAC583CA85
:1000A200F0A3C8C582C8CAC583CADFE9DEE780BE3D
:0101310000CD
:00000001FF
