:03000000020026D5
:0C002600787FE4F6D8FD75812002006DA3
:04011400C101C10064
:1000B20012000330000512001980031200F830000C
:1000C2000820010512010280EA3000E73001E41243
:0400D200010C80DFBE
:10000300758920758DFD758BFD759850E4F587D244
:06001300AFD2ACD28E2238
:030023000200D602
:1000D600C0E0C0D075D000C007AF99EF24FE60071E
:1000E600047006B2008002B201C298D007D0D0D008
:0200F600E032F6
:0A001900E4F5807590F075A0FF2259
:0A00F8007580FF7590FF75A0FF22D0
:0A0102007580FF75900FE4F5A02250
:08010C00E4F580F590F5A02256
:100032000200B2E493A3F8E493A34003F68001F232
:1000420008DFF48029E493A3F85407240CC8C333CF
:10005200C4540F4420C8834004F456800146F6DF9E
:10006200E4800B0102040810204080900114E47E19
:10007200019360BCA3FF543F30E509541FFEE49393
:10008200A360010ECF54C025E060A840B8E493A35A
:10009200FAE493A3F8E493A3C8C582C8CAC583CA85
:1000A200F0A3C8C582C8CAC583CADFE9DEE780BE3D
:0101180000E6
:00000001FF
